:020000040800F2
:1000000000000320190200086F0200087D020008AA
:1000100083020008890200088F0200080000000027
:100020000000000000000000000000009502000831
:10003000A302000800000000B1020008BF0200088F
:100040006D0200086D0200086D0200086D020008D4
:100050006D0200086D0200086D0200086D020008C4
:100060006D020008CB0200086D0200086D02000856
:100070006D020008590500086D0200086D020008B5
:100080006D0200086D0200086D0200086D02000894
:100090006D0200086D0200086D0200086D02000884
:1000A0006D0200086D0200086D0200086D02000874
:1000B0006D0200086D0200086D0200086D02000864
:1000C0006D0200086D0200086D0200086D02000854
:1000D0006D020008F10200086D0200086D020008C0
:1000E0006D0200086D0200086D0200086D02000834
:1000F0006D0200086D0200086D0200086D02000824
:100100006D0200086D0200086D0200086D02000813
:100110006D0200086D0200086D0200086D02000803
:100120006D0200086D0200086D0200086D020008F3
:100130006D0200086D0200086D0200086D020008E3
:100140006D0200086D0200086D0200086D020008D3
:10015000D90200086D020008E50200086D020008DF
:100160006D0200086D0200086D0200086D020008B3
:100170006D0200086D0200086D0200086D020008A3
:100180006D0200086D0200086D0200086D02000893
:100190006D0200086D0200086D0200086D02000883
:0C01A0006D0200086D0200086D020008EE
:1001AC0010B5054C237833B9044B13B10448AFF3A5
:1001BC0000800123237010BDC40200200000000049
:1001CC000813000808B5034B1BB103490348AFF3F0
:1001DC00008008BD00000000C802002008130008C1
:1001EC0080B500AF00F030FA00F0E0FF62B600F02E
:1001FC00D1FC00F0F1FD00F015FD00F07FFD00F0EA
:10020C00FDFD00F0B3FE00F0D7FEFCE7DFF838D0C0
:10021C0072B6002103E00D4B5B58435004310C487F
:10022C000C4B42189A42F6D30B4A02E0002342F8D8
:10023C00043B0A4B9A42F9D300F05AF801F03AF811
:10024C00FFF7CEFF704700000000032028130008C2
:10025C0000000020C4020020C4020020F80300208B
:10026C00FEE780B400AF00BFBD465DF8047B70476D
:10027C0080B400AFFEE780B400AFFEE780B400AFFF
:10028C00FEE780B400AFFEE780B400AF00BFBD4610
:10029C005DF8047B704780B400AF00BFBD465DF8CD
:1002AC00047B704780B400AF00BFBD465DF8047B93
:1002BC00704780B500AF00F0B9F900BF80BD80B4C5
:1002CC0000AF00BFBD465DF8047B704780B500AF42
:1002DC0000F00AFE00BF80BD80B500AF00F0F0FD5D
:1002EC0000BF80BD80B500AF00F0D0FD00BF80BD69
:1002FC0080B500AF164A164BD3F8883043F4700320
:10030C00C2F88830134A134B1B6843F00103136087
:10031C00104B00229A600F4A0E4B1B6823F084731B
:10032C0023F4803313600B4B0B4A5A60094A094B78
:10033C001B6823F480231360064B0022DA6000F064
:10034C0089F8034B4FF000629A6000BF80BD00BF7C
:10035C0000ED00E0003802401030002480B487B07B
:10036C0000AF00233B6100237B610223FB60002371
:10037C00BB6002237B60324B9B6803F00C033B6138
:10038C003B69042B07D0082B09D0002B3DD12D4BFA
:10039C002D4A1A603DE02B4B2C4A1A6039E0284B51
:1003AC005B689B0D03F00103BB60254B5B6803F09E
:1003BC003F037B60BB68002B0CD0244A7B68B2FBEC
:1003CC00F3F31F4A52689209C2F3080202FB03F3CB
:1003DC007B610BE01C4A7B68B2FBF3F3184A526852
:1003EC009209C2F3080202FB03F37B61144B5B68B6
:1003FC001B0C03F0030301335B00FB607A69FB68A1
:10040C00B2FBF3F30F4A136003E00E4B0E4A1A6073
:10041C0000BF0B4B9B681B0903F00F030C4AD35C0A
:10042C00DBB23B61074B1A683B6922FA03F3054ABE
:10043C00136000BF1C37BD465DF8047B704700BFDE
:10044C0000380240000000200024F40000127A0062
:10045C000400002080B483B000AF00237B60002335
:10046C003B60364A354B1B6843F480331360334B87
:10047C001B6803F400333B607B6801337B603B6893
:10048C00002B03D17B68B3F5A06FF0D12B4B1B680D
:10049C0003F40033002B02D001233B6001E0002366
:1004AC003B603B68012B02D1244B254A5A60234AFE
:1004BC00224B1B6C43F080531364224A214B1B6864
:1004CC0043F4404313601D4A1C4B9B6893601B4ACA
:1004DC001A4B9B6843F400439360184A174B9B6874
:1004EC0043F4A0539360154A144B1B6843F080737C
:1004FC00136000BF114B1B6803F00073002BF9D085
:10050C00114B40F205721A600C4A0C4B9B6823F09D
:10051C0003039360094A094B9B6843F00203936001
:10052C0000BF064B9B6803F00C03082BF9D100BFEE
:10053C000C37BD465DF8047B704700BF00380240A5
:10054C00085A400700700040003C024080B500AFE4
:10055C004FF081510C4800F0B7F80346002B10D037
:10056C0001210A4800F09AFD0021074800F090F89C
:10057C004FF08151044800F0E3F8054B1B68002252
:10058C001A8000BF80BD00BF40600240005C00408C
:10059C00F403002080B483B000AF03463960FB71D4
:1005AC0097F90730002B0BDA0D49FB7903F00F0399
:1005BC00043B3A68D2B21201D2B20B441A7609E06B
:1005CC00084997F907303A68D2B21201D2B20B44FB
:1005DC0083F8002300BF0C37BD465DF8047B7047E1
:1005EC0000ED00E000E100E080B582B000AF786083
:1005FC007B68013BB3F1807F01D301230FE00A4AF2
:10060C007B68013B53600F214FF0FF30FFF7C2FFB7
:10061C00054B00229A60044B07221A6000231846EF
:10062C000837BD4680BD00BF10E000E080B400AFCD
:10063C00044B1B680133034A136000BFBD465DF8D1
:10064C00047B7047E002002080B582B000AFFFF75A
:10065C0085FE0C4B1B680C4A934200D0FEE7094BFD
:10066C001B680A4AA2FB03239B091846FFF7BCFF31
:10067C0078607B68002B00D0FEE700BF0837BD46D2
:10068C0080BD00BF000000200095BA0AD34D621057
:10069C0080B483B000AF78600B46FB70FB78002B06
:1006AC0006D07B681B6843F001027B681A6005E08A
:1006BC007B681B6823F001027B681A6000BF0C3753
:1006CC00BD465DF8047B704780B487B000AF78609E
:1006DC0039600023FB750023FB607B68154A93424D
:1006EC0002D8154B3B6101E0144B3B613B6803F0B6
:1006FC000053002B03D03B695B68FB6002E03B6955
:10070C001B68FB60FB6823F0F02323F08213FB6073
:10071C00FA683B681340002B02D00123FB7501E003
:10072C000023FB75FB7D18461C37BD465DF8047B2A
:10073C00704700BF0F64024000600240006402403A
:10074C0080B485B000AF786039607B68104A934202
:10075C0002D8104BFB6001E00F4BFB603B6803F0D1
:10076C000053002B07D03B6823F0F02323F08213B7
:10077C00FA68D36006E03B6823F0F02323F0821381
:10078C00FA68936000BF1437BD465DF8047B704770
:10079C000F640240006002400064024080B500AF6C
:1007AC00284BDB6803F08003802B0DD11B212648DE
:1007BC0000F0C6F92F21254800F0C2F9214A214B3F
:1007CC00DB6843F08003D3601E4BDB6803F040030F
:1007DC00402B0DD11E211E4800F0B2F92F211B48D1
:1007EC0000F0AEF9174A174BDB6843F04003D360B7
:1007FC00144BDB6803F02003202B0DD11C21154872
:10080C0000F09EF92F21114800F09AF90D4A0D4B7A
:10081C00DB6843F02003D3600A4BDB6803F0100362
:10082C00102B0DD117210C4800F08AF92F21074805
:10083C0000F086F9034A034BDB6843F01003D360E6
:10084C0000BF80BD003C02403801002008010020A0
:10085C0054010020740100209001002080B584B068
:10086C0000AF0023BB6000237B6000233B60A34BE5
:10087C001B78013B082B00F23B8101A252F823F0BC
:10088C00B1080008CF080008ED0800084509000869
:10089C005D090008D10900084B0A0008C10A0008CC
:1008AC00DF0A0008964A964B1B6943F0004313611C
:1008BC001E21944800F044F92F21934800F040F990
:1008CC0017E18F4B914A5A608D4B914A5A60202107
:1008DC00904800F035F92F218B4800F031F908E1F0
:1008EC0000BF874BDB6803F48033002BF9D1844ABB
:1008FC00834B1B6943F001031361874B1B68BB607F
:10090C00864B1B687B60BB687A681A6000BF7C4BA7
:10091C00DB6803F48033002BF9D1794A784B1B69DF
:10092C0023F00103136125217D4800F009F92F21E3
:10093C00754800F005F9DCE0774B1B68BB60BB68C1
:10094C001B683B603B460421184600F0F9F8D0E0E8
:10095C0000BF6B4BDB6803F48033002BF9D1684A82
:10096C00674B1B6943F002031361644B5B78FB60BC
:10097C00FB680B2B02D9FB680433FB606049604BAE
:10098C001A69FB68DB00DBB213430B615C4A5C4BFE
:10099C001B6943F48033136100BF594BDB6803F4CC
:1009AC008033002BF9D1564A554B1B6923F00203B7
:1009BC0013611F215B4800F0C3F82F21524800F04F
:1009CC00BFF896E000BF4E4BDB6803F48033002B7E
:1009DC00F9D14A4B5B78FB60FB680B2B0ED9FB689B
:1009EC000C3BFB604649464B9B690120FA6800FAB8
:1009FC0002F21204D24313408B610AE04049404B8F
:100A0C005B690120FA6800FA02F21204D243134027
:100A1C004B613B4A3A4B5B6943F00203536100BFA5
:100A2C00374BDB6803F48033002BF9D124213E488B
:100A3C0000F086F82F21344800F082F859E000BF0E
:100A4C002F4BDB6803F48033002BF9D12B4B5B78F5
:100A5C00FB60FB680B2B0DD9FB680C3BFB6028493A
:100A6C00274B9B690120FA6800FA02F21204134327
:100A7C008B6109E02249224B5B690120FA6800FA7C
:100A8C0002F2120413434B611D4A1D4B5B6943F088
:100A9C000203536100BF1A4BDB6803F48033002B55
:100AAC00F9D12021214800F04BF82F21164800F0F5
:100ABC0047F81EE0124B1E4A9A60114B1D4A9A6071
:100ACC0027211D4800F03CF82F210F4800F038F882
:100ADC000FE00B4A0A4B5B6943F00103536125217C
:100AEC00164800F02DF82F21074800F029F800E0F7
:100AFC0000BF00BF1037BD4680BD00BFE80200201C
:100B0C00003C0240C8010020080100202301674579
:100B1C00AB89EFCDA8010020E9020020ED020020F6
:100B2C009C020020E8010020580200207C020020DA
:100B3C003B2A19087F6E5D4C080200203002002011
:100B4C0080B483B000AF78600B46FB707B68002BE1
:100B5C0016D000BF0D4B1B6803F00103012BF9D01D
:100B6C000A4A7B68D360094AFB785360084B4FF004
:100B7C007462DA60054A054B1B6843F0010313608D
:100B8C0000BF0C37BD465DF8047B7047B86402406B
:100B9C000064024080B400AF204A204B1B6B43F032
:100BAC00010313631E4A1E4B1B6823F4701313605E
:100BBC001B4A1B4B1B6843F420131360184A184B39
:100BCC005B6823F400735360154A154B9B6823F440
:100BDC0040239360124A124B9B6843F4802393602A
:100BEC000F4A0F4BDB6823F47013D3600C4A0C4B89
:100BFC00DB6843F4A013D360094A094B5B6A23F406
:100C0C007F635362064A064B5B6A43F4EE6353629E
:100C1C0000BFBD465DF8047B704700BF0038024042
:100C2C000000024080B400AF314A314B1B6B43F4DF
:100C3C00800313632F4B1B6803F00103012B0CD1B2
:100C4C002C4A2C4B1B6823F00103136000BF294B6B
:100C5C001B6803F00103012BF9D0264A254B1B68B6
:100C6C0023F060631360234A224B1B6843F000633C
:100C7C001360204A1F4B1B6843F4403313601D4A1A
:100C8C001C4B1B6823F0C00313601A4A194B1B68DA
:100C9C0043F040031360174A164B1B6823F4C04300
:100CAC001360144A134B1B6823F4C0531360114A8E
:100CBC00104B5B6943F0040353610E4A0D4B5B69A7
:100CCC0043F0030353610B4A0A4B1B6843F48063E4
:100CDC001360084A074B1B6843F010031360054B65
:100CEC00054A9A6000BFBD465DF8047B704700BFA3
:100CFC0000380240B86402400410014080B400AFD8
:100D0C00314A314B1B6B43F4800313632F4B1B682D
:100D1C0003F00103012B0CD12C4A2C4B1B6823F044
:100D2C000103136000BF294B1B6803F00103012B67
:100D3C00F9D0264A254B1B6823F060631360234AC5
:100D4C00224B1B6843F000631360204A1F4B1B6847
:100D5C0043F4403313601D4A1C4B1B6823F0C00343
:100D6C0013601A4A194B1B6823F4C0431360174ACB
:100D7C00164B1B6823F4C0531360144A134B5B6966
:100D8C0043F004035361114A104B5B6943F00303B6
:100D9C0053610E4A0D4B1B6843F4806313600B4A7E
:100DAC000A4B1B6843F010031360084B084A9A6007
:100DBC00064B084ADA60054B80225A6000BFBD46DC
:100DCC005DF8047B704700BF003802408864024025
:100DDC00041001406803002080B400AF054B1022C2
:100DEC005A64054B40F20D321A8100BFBD465DF8C6
:100DFC00047B7047003802400010014080B400AF03
:100E0C001F4A1F4B9B899BB243F400539BB29381A7
:100E1C001B4A1B4B9B899BB243F008039BB29381EB
:100E2C00174A174B9B899BB243F004039BB29381E7
:100E3C00134A134B9B899BB243F010039BB29381D3
:100E4C000F4A0F4B9B8A9BB243F080039BB2938259
:100E5C000B4A0B4B9B8A9BB243F040039BB2938291
:100E6C00084B4FF47462DA60074A074B1B6843F077
:100E7C000103136000BFBD465DF8047B704700BFE3
:100E8C0000100140006402408864024080B400AF4E
:100E9C00094B1B889BB203F01003102B07D1064B98
:100EAC009B88064A054B1B6823F00103136000BFA7
:100EBC00BD465DF8047B7047001001408864024019
:100ECC0080B400AF074B5B6803F00063B3F1006FB5
:100EDC0003D1044B4FF07462DA6000BFBD465DF87D
:100EEC00047B70470064024080B483B000AF1A4B9F
:100EFC005B6803F40063B3F5006F27D1174B5B6895
:100F0C00DAB26FF07F039B1ADAB2154B1A7000231A
:100F1C007B600BE0134A7B6813441978124A7B6898
:100F2C0013440A461A707B6801337B600C4B1B78A8
:100F3C001A467B689A42EDDC074B4FF47462DA6018
:100F4C00064A064B1B6843F00103136000BF0C37C5
:100F5C00BD465DF8047B7047006402408864024023
:100F6C00E803002068030020E802002080B400AFF2
:100F7C000E4B0F4A5A600D4B0E4A5A600B4A0B4BE4
:100F8C001B6923F440731361084A084B1B6943F433
:100F9C0000731361054A054B1B6943F00043136151
:100FAC0000BFBD465DF8047B704700BF003C0240AB
:100FBC0023016745AB89EFCD80B500AF294B1B787A
:100FCC00002B02D0012B3CD04AE02F212648FFF702
:100FDC00B7FD1E212548FFF7B3FD24212448FFF758
:100FEC00AFFD2F212048FFF7ABFD0E212148FFF765
:100FFC00A7FD10212048FFF7A3FD0E211F48FFF786
:10100C009FFD0D211E48FFF79BFD10211D48FFF78A
:10101C0097FD14211C48FFF793FD1B211B48FFF77C
:10102C008FFD17211A48FFF78BFD15211948FFF783
:10103C0087FD2F210C48FFF783FD0A4B01221A7004
:10104C000EE0154B1B78002B06D0FFF707FCFFF7C3
:10105C00A5FB114B00221A70024B01221A7000BF23
:10106C0000BF80BDE4020020080100201400002015
:10107C003400002058000020680000207800002078
:10108C008800002098000020A8000020BC00002050
:10109C00D8000020F0000020E803002080B483B0CA
:1010AC0000AF78600B46FB70FB78002B08D07B6898
:1010BC001B889BB243F400739AB27B681A8007E0DA
:1010CC007B681B889BB223F400739AB27B681A80EE
:1010DC0000BF0C37BD465DF8047B704780B485B00B
:1010EC0000AF78607B6803F00703FB600C4BDB6898
:1010FC00BB60BA684FF6FF031340BB60FB681A0273
:10110C00BB68134343F0BF6343F40033BB60044A32
:10111C00BB68D36000BF1437BD465DF8047B7047D5
:10112C0000ED00E080B483B000AF0346FB710949C9
:10113C0097F907305B09FA7902F01F02012000FAD7
:10114C0002F241F8232000BF0C37BD465DF8047B4A
:10115C00704700BF00E100E080B483B000AF0346ED
:10116C003960FB7197F90730002B0BDA0D49FB79CD
:10117C0003F00F03043B3A68D2B21201D2B20B4413
:10118C001A7609E0084997F907303A68D2B2120189
:10119C00D2B20B4483F8002300BF0C37BD465DF878
:1011AC00047B704700ED00E000E100E080B500AF8B
:1011BC000320FFF793FF00214FF0FF30FFF7CCFF28
:1011CC0001210620FFF7C8FF01210B20FFF7C4FF08
:1011DC0001210D20FFF7C0FF01210F20FFF7BCFFFD
:1011EC0001211120FFF7B8FF01212F20FFF7B4FFD9
:1011FC0001213820FFF7B0FF01213B20FFF7ACFFA6
:10120C0001213C20FFF7A8FF01214420FFF7A4FF98
:10121C0001214620FFF7A0FF01212520FFF79CFFAD
:10122C0001213520FFF798FF01211E20FFF794FFC5
:10123C0001212C20FFF790FF01212D20FFF78CFFBF
:10124C0001211220FFF788FF0620FFF76BFF0B2010
:10125C00FFF768FF0D20FFF765FF0F20FFF762FF18
:10126C001120FFF75FFF2F20FFF75CFF3820FFF7FF
:10127C0059FF3B20FFF756FF3C20FFF753FF44205C
:10128C00FFF750FF4620FFF74DFF2520FFF74AFFE1
:10129C003520FFF747FF1E20FFF744FF2C20FFF7F8
:1012AC0041FF2D20FFF73EFF1220FFF73BFF00BF51
:1012BC0080BD000070B50D4E0D4CA41BA410002574
:1012CC00A54209D10B4E0C4C00F018F8A41BA4102D
:1012DC000025A54205D170BD56F82530984701353B
:1012EC00EEE756F8253098470135F2E72013000851
:1012FC00201300082013000824130008F8B500BFC1
:10130C00F8BC08BC9E467047F8B500BFF8BC08BCDA
:04131C009E46704732
:04132000D1010008EF
:04132400AD0100080F
:101328000095BA0A00000000000000000102030452
:101338000607080957656C636F6D6520746F204652
:101348006C61736820436F6E74726F6C6C65722089
:101358002100000053656C65637420636F6D6D61D7
:101368006E642066726F6D2074686520666F6C6CA1
:101378006F77696E673A2000313A20466C6173686E
:10138800204C6F636B000000323A20466C61736832
:1013980020556E6C6F636B00333A20577269746521
:1013A8002044617461000000343A20526561642071
:1013B8004461746100000000353A20536563746F1E
:1013C8007220457261736500363A205772697465F8
:1013D8002050726F74656374696F6E00373A2052DB
:1013E800656D6F76652057726974652050726F74E9
:1013F800656374696F6E0000383A204F7074696FC6
:101408006E20427974657320556E6C6F636B0000B3
:10141800393A204F7074696F6E2042797465732071
:101428004C6F636B000000002A2A2A2A2A2A2A2ADB
:101438002A2A2A2A2A2A2A2A2A2A2A2A2A2A2A2A04
:101448002A2A2A2A2A2A2A2A2A2A2A2A2A2A2A2AF4
:101458002A2A2A2A2A2A000050726F6772616D6D43
:10146800696E672073657175656E63652065727254
:101478006F72000050726F6772616D6D696E6720E0
:10148800706172616C6C656C69736D206572726FE6
:101498007200000050726F6772616D6D696E67202F
:1014A800616C69676E6D656E74206572726F72002B
:1014B80057726974652070726F74656374696F6EB2
:1014C800206572726F720000466C61736820756ED9
:1014D8006C6F636B2073657175656E6365206578E5
:1014E8006563757465642000466C617368206C6F71
:1014F800636B2073657175656E63652065786563D8
:101508007574656420000000536563746F7220650C
:10151800726173652073657175656E6365206578A2
:1015280065637574656400004F7074696F6E20425E
:101538007974657320756E6C6F636B207365717554
:10154800656E636520657865637574656420000061
:101558004F7074696F6E204279746573206C6F6385
:101568006B2073657175656E636520657865637555
:1015780074656420000000005772697465207072F9
:101588006F74656374696F6E2073657175656E63DA
:1015980065206578656375746564200052656D6FB4
:1015A80076652077726974652073657175656E63F9
:1015B800652065786563757465642000466C6173A1
:1015C800682070726F6772616D6D696E67207365F0
:1015D8007175656E636520657865637574656420EB
:0415E80000000000FF
:0400000508000219D4
:00000001FF
